:100000001808002065010000610100006101000086
:1000100000000000000000000000000000000000E0
:10002000000000000000000000000000610100006E
:1000300000000000000000006101000061010000FC
:100040006101000061010000370C00006101000047
:100050006101000061010000610100006101000018
:100060006101000061010000610100006101000008
:1000700061010000610100006101000061010000F8
:1000800061010000610100006101000061010000E8
:1000900061010000610100006101000061010000D8
:1000A00061010000610100006101000061010000C8
:1000B00061010000610100006101000061010000B8
:1000C0006101000061010000810E0000610100007B
:1000D0006101000061010000610100006101000098
:1000E0006101000061010000F915000061010000DC
:1000F0006101000010B540F2B404C2F2000423789C
:1001000063B940F20003C0F200032BB142F25C601D
:10011000C0F2000000E000BF0123237010BDC04604
:1001200040F20003C0F2000310B54BB140F2B80139
:1001300042F25C60C2F20001C0F2000000E000BFC9
:1001400042F25C60C0F20000036803B910BD40F2E7
:100150000003C0F20003002BF8D09847F6E7C04632
:10016000FEE7000010B542F25C62C0F2000240F20D
:100170000003C2F200039A4220D01A0040F2B403F6
:10018000C2F200039A4219D240F2B403C2F2000351
:100190000333244A9B1A9B0801339B00002240F240
:1001A0000001C2F20001511842F25C60C0F200008E
:1001B00010180068086004329A42F0D140F2B4028C
:1001C000C2F2000240F21823C2F200039A4213D294
:1001D00040F2B402C2F20002D34340F21821C2F24C
:1001E00000018C46634403218B43043394466344EB
:1001F000002102C29342FCD140F20003C0F200038E
:100200007F2293434EF60052CEF20002936042F2F8
:100210003153C0F20003984741F20313C0F20003C8
:100220009847FEE70400002010B540F60003C4F232
:1002300000035A6940F200210A435A6140F62D43F7
:10024000C0F200039847020042F20041C4F20001EC
:1002500040F20C10C2F2000040F25B53C0F2000307
:10026000984710BD41F60043C4F200034121CC225F
:10027000995040F60003C4F20003DA69C031FF313F
:100280000A43DA61704710B541F60043C4F2000337
:1002900040219822995040F60003C4F20003DA6925
:1002A0003F390A43DA6140F22743C0F2000398471E
:1002B00010BDF0B5C022D20540F6000393619360F3
:1002C00043F20003C4F2000340F60001C4F200014F
:1002D0009962C020000698624B255C5D01218C4329
:1002E0005C5540F2004494619460C4F200049C6246
:1002F0009862013D5C5D8C435C5580249461946000
:10030000C4F200049C629862033D5C5D8C435C55C2
:10031000202494619460C4F200049C629862023DBF
:100320005C5D8C435C55042494619460C4F20004C9
:100330009C6298624224185D88431855802000050D
:10034000906190608026F6059E6240F60000CCF237
:10035000000098621934185D884318558024A4045D
:100360009461546059201D5C04273D431D549461E1
:1003700054600024C4F202049C6240F20024CCF2D7
:1003800002049C621C5C8C431C54802040049061DD
:1003900090609E6240F20012CCF200029A625820F5
:1003A0001A5C8A431A54F0BDEFF31083036072B6EF
:1003B000BFF35F8F7047BFF35F8F036883F31088CD
:1003C000704710B540F2D003C2F20003186040F647
:1003D000BD03C0F20003984710BD10B540F2D00332
:1003E000C2F200031C6840F69503C0F20003984770
:1003F0000100200040F6BF03C0F20003984710BD83
:1004000010B540F2D003C2F200031C6840F6A70307
:10041000C0F2000398470100200040F6BF03C0F27D
:100420000003984710BD10B540F61913C0F2000341
:10043000984710BD10B540F63D23C0F20003984721
:1004400030B940F68D03C0F200039847002010BD7C
:100450000D204042FBE7F8B5CE46474680B58146C1
:1004600003689C462BB18E681C0000250127BF1A2B
:100470000FE040F60D03C0F2000398471AE0FB18A6
:10048000A06880464344B3420BD2236825005BB189
:100490001C0063689342F2D8A068804643449B1ACC
:1004A000F1E7A4450AD02C00200040F63F03C0F23B
:1004B000000398470CBC90469946F8BD484640F664
:1004C0000D03C0F200039847F4E7F0B5D64647465F
:1004D00080B583B007004469026901329046026129
:1004E000037EDB0717D4037E9B0714D4BCB1130033
:1004F00062689B1AA268934211D340F2140C8444A0
:100500006346019340F64706C0F2000640F2574AA0
:10051000C0F2000A15E03B7E022213433B7603B093
:100520000CBC90469A46F0BD7D69E3682000984770
:10053000002DF4D02C0043466A689B1AAA689342A7
:10054000EDD30198B047237C012BEDD14346636086
:10055000424621000198D047E6E770B504000D003F
:100560001600D8B1E1B11000431E984142F280510B
:10057000C0F200013B2240F2E773C0F2000398474B
:10058000200040C03368290098470023636140F28F
:10059000CB43C0F200036360002070BD0020E5E79C
:1005A0000020E3E770B50400C8B10068431E98411D
:1005B000C0B242F28051C0F20001542240F2E7730F
:1005C000C0F200039847251D23689B6928009847BF
:1005D00038B923689B6828009847002070BD002028
:1005E000E7E711204042F9E770B50400C8B10068A0
:1005F000431E9841C0B242F28051C0F20001622213
:1006000040F2E773C0F200039847251D23689B69F9
:100610002800984738B12368DB68280098470020F5
:1006200070BD0020E7E711204042F9E770B50500F2
:100630000C00A0B10068431E9841C0B242F2805144
:10064000C0F20001702240F2E773C0F20003984745
:10065000281D2B681B6921009847002070BD0020D1
:10066000ECE770B582B004000D00002830D00029FE
:1006700030D00068431E984142F28051C0F2000120
:100680007B2240F2E773C0F200039847237F0122E8
:1006900013432377260018362900300040F2ED730B
:1006A000C0F200039847B8B963696B6062692900BA
:1006B000300040F25743C0F200039847237F0122E5
:1006C00093432377237F00209B0717D402B070BD8C
:1006D0000020D1E70020CFE7237F01229343237737
:1006E00042F28051C0F200017F32002040F2E773F5
:1006F000C0F20003984712204042E7E701A840F209
:10070000A933C0F200039847237F02229343237743
:10071000201D2368DB69984701A840F2B733C0F277
:10072000000398470020D1E770B582B004000D00A7
:1007300000282DD000292DD00068431E984142F298
:100740008051C0F20001962240F2E773C0F200032C
:100750009847237F01221343237726001836290068
:10076000300040F2ED73C0F200039847A0B12900B9
:10077000300040F65303C0F200039847237F012264
:1007800093432377237F00209B0716D402B070BDCC
:100790000020D4E70020D2E7237F01229343237770
:1007A00042F28051C0F200019A3240F2E773C0F287
:1007B000000398470A204042E8E701A840F2A93325
:1007C000C0F200039847237F022293432377201D22
:1007D0002368DB69984701A840F2B733C0F20003F1
:1007E00098470020D2E700B900BE704703684BB1BC
:1007F0008B4209D01B681BB19942FBD1012000E05C
:10080000002070470020FCE70120FAE770B50400E3
:100810000D0040F2ED73C0F20003984742F2985188
:10082000C0F2000101235840C0B2392240F2E77300
:10083000C0F20003984723682B60256070BD0368F1
:100840000B600160704703680BB11A680260180002
:100850007047B9B10268914209D0AAB113689942B0
:1008600009D06BB11A68914206D01300F9E71368FA
:100870000360012003E013000A681A60012070473A
:100880000020FCE70020FAE70020F8E7BFF34F8FD5
:1008900030BF704703008000C01840011D301E2388
:1008A000B0FBF3F0704703008000C0184001023035
:1008B0000323B0FBF3F061335843704770470139AD
:1008C000FDD8704710B544F20003C4F200135A6813
:1008D00004210A435A60002040F66723C0F2000357
:1008E000984740F6F513C0F20003984740F60D23F1
:1008F000C0F20003984740F6E713C0F200039847A0
:1009000040F63B23C0F2000398471F2040F67313C4
:10091000C0F20003984710BDF0B5002342F2B85072
:10092000C0F20000195C40F22012C4F200229A18B2
:1009300011700133172BF5D1002242F2B850C0F2EA
:1009400000000500183528302526242453005B5B61
:10095000D1008427FF05BC4661440B629300C35C51
:100960008B55DB43DBB20B550132082AEED1002058
:10097000F0BDC30710D541F60043C4F2000340F2B6
:100980000512C0F201021A6241F60042C4F20002EE
:100990007D2153681942FCD1830710D541F60043ED
:1009A000C4F2000340F20512C0F204025A6241F69A
:1009B0000042C4F200027D2153681942FCD1430772
:1009C00010D541F60043C4F2000340F20312C0F216
:1009D00001029A6241F60042C4F200027D2153688E
:1009E0001942FCD1704740F60003C4F20003012213
:1009F0001A71704741F20043C4F20003DA6941F60C
:100A000000710A40DA6100221A74704741F2000353
:100A1000C4F200030E221A7641F20002C4F2000270
:100A2000102113691942FCD041F20003C4F2000303
:100A30001A7E80210A431A7670477047042806D030
:100A4000062804D0022802D00D2040420AE040F2DD
:100A50000042C4F20002537807218B430840184338
:100A600050700020704740F20043C4F200039B78AE
:100A700003221340984212D040F20042C4F2000216
:100A8000FF239371937803218B43084018439070A0
:100A900040F20042C4F200029379002BFCD0704770
:100AA000C2681162202113691942FCD17047C268E3
:100AB000202113691942FCD1106A7047C26848F2BC
:100AC000030113691942FCD110888007C00F7047D9
:100AD0007047000070B505000C0042F20061C0F2E2
:100AE0000001431E9841C0B2342240F2E773C0F2C5
:100AF00000039847EC600123238048F20302236936
:100B00001A42FCD1EB6801211A691142FCD10C4A4E
:100B10001A8048F203011A691142FCD1EA682023C5
:100B20001362202113691942FCD140F20013EA68D4
:100B3000538140F2D403C2F200031D60002070BD57
:100B40008081FFFF10B5040008B3C068431E9841C0
:100B5000C0B242F20061C0F20001562240F2E773D7
:100B6000C0F2000398474EF20013CEF200030421B6
:100B700080229950BFF34F8FBFF36F8FE26801233C
:100B8000138048F2030113691942FCD110BD002003
:100B9000DFE710B5040048B3C068431E9841C0B2F7
:100BA00042F20061C0F20001622240F2E773C0F23B
:100BB000000398474EF20013CEF2000304221A609D
:100BC000E26800239361082113691942FCD1E368AC
:100BD00008211A691142FCD11A8802210A431A809D
:100BE00048F203011A691142FCD110BD0020D7E779
:100BF00010B50400C0B1C068431E9841C0B242F2B3
:100C00000061C0F200016F2240F2E773C0F20003FE
:100C10009847E268138802218B43138048F203014E
:100C200013691942FCD110BD0020E8E740F2000032
:100C3000C2F20000704710B540F2D403C2F20003C4
:100C40001C68E3689B89DB0507D523680BB120008E
:100C50009847E36840F200129A8140F27413C2F29E
:100C600000031A6801321A601B68642B00D194E0FB
:100C700040F27813C2F200031B6893B140F278137C
:100C8000C2F200031A6801321A601B68232B00D1DC
:100C900090E040F27813C2F200031B68642B00D18D
:100CA0008EE040F26C13C2F200031B6893B140F275
:100CB0006C13C2F200031A6801321A601B68232BFE
:100CC00000D189E040F26C13C2F200031B68642B70
:100CD00000D187E040F28013C2F200031B6893B199
:100CE00040F28013C2F200031A6801321A601B68D6
:100CF000232B00D182E040F28013C2F200031B6874
:100D0000642B00D17FE040F27013C2F200031B6835
:100D100093B140F27013C2F200031A6801321A60F4
:100D20001B68232B00D179E040F27013C2F200035C
:100D30001B68642B00D176E040F28813C2F20003F6
:100D40001B6893B140F28813C2F200031A680132A3
:100D50001A601B68232B00D170E040F28813C2F2A6
:100D600000031B68642B00D16DE040F28C13C2F2CB
:100D700000031B6883B140F28C13C2F200031A68AF
:100D800001321A601B68232B68D040F28C13C2F228
:100D900000031B68642B67D010BD40F27413C2F2CD
:100DA000000300221A6040F27C13C2F200030132F9
:100DB0001A705DE740F60002C023DB059A6168E720
:100DC00040F27813C2F2000300221A6040F60002DB
:100DD000C023DB059A6164E740F20042C023DB05D3
:100DE0009A616FE740F26C13C2F2000300221A60AE
:100DF00040F20042C023DB059A616BE78022C023EA
:100E0000DB059A6177E740F28013C2F2000300220B
:100E10001A608032C023DB059A6174E72022C02368
:100E2000DB059A6180E740F27013C2F200030022F2
:100E30001A602032C023DB059A617DE70422C023BB
:100E4000DB059A6189E740F28813C2F200030022B1
:100E50001A600432C023DB059A6186E780221205FE
:100E6000C023DB059A6190E740F28C13C2F20003C5
:100E700000221A6080221205C023DB059A618BE7ED
:100E800010B540F2D803C2F200031868C3689A7A1A
:100E9000D20700D410BD01229A7203689847F9E77F
:100EA000C022D20580218904916043F20003C4F27C
:100EB00000038020C005986240F20020CCF20000C0
:100EC000986291617047C022D205802189049160A7
:100ED00043F20003C4F200038020C005986240F290
:100EE0000020CCF2000098625161704770B582B06A
:100EF000C026F60580239B04736043F20005C4F20C
:100F000000050023C4F20203AB6240F20023CCF2DE
:100F10000203AB6201A840F2A933C0F20003984774
:100F200034682B6A3069584004405C4001A840F2A4
:100F3000B733C0F200039847A001C00F02B070BDE4
:100F400070B5C025ED0580267604AE61322040F2F2
:100F5000DB34C0F20004A04740F6A163C0F20003F6
:100F600098473220A04740F6C763C0F20003984775
:100F70003220A0476E61C820A04770BD10B540F672
:100F8000C763C0F200039847322040F2DB34C0F25E
:100F90000004A04780225204C023DB059A6132205E
:100FA000A04740F6A163C0F2000398473220A04753
:100FB00010BDF0B5D6464F464646C0B507000824DA
:100FC00040F6C769C0F2000940F6A16AC0F2000A03
:100FD00040F2DB38C0F200080FE0D0477F00FFB2DC
:100FE0003220C047C025ED0580267604AE61322050
:100FF000C0476E61013CE4B224B17BB2002BECDB54
:10100000C847EBE740F6C763C0F2000398473220B9
:1010100040F2DB34C0F20004A047AE613220A047AA
:1010200040F6ED63C0F2000398470700C820A047D0
:101030006E613220A04738001CBC90469946A246FB
:10104000F0BD70B506000D0040F64173C0F200031C
:101050009847242040F6B374C0F20004A047300043
:10106000A0472800A04740F67D73C0F200039847D0
:1010700070BDF8B5DE4657464E464546E0B5C0253C
:10108000ED0540F600066E616E2040F20144C0F2AC
:101090000004A04740F200476F616E20A04740F275
:1010A000800843466B616E20A04740F220094B4602
:1010B0006B616E20A04740F2040A53466B616E20BC
:1010C000A04780231B059B466B61DC20A0475B4645
:1010D000AB616E20A0475346AB616E20A0474B46E4
:1010E000AB616E20A0474346AB616E20A047AF6165
:1010F0006E20A047AE613CBC90469946A246AB46E6
:10110000F8BDF0B583B040F6C503C0F200039847C0
:1011100040F2B323C0F20003984740F22923C0F203
:10112000000398474EF21000CEF2000040F2C333A5
:10113000C0F20003984741F27303C0F200039847DE
:1011400040F26523C0F20003984740F28723C0F2C3
:101150000003984741F2E143C0F20003984700259D
:10116000019540F27C17C2F20007D2E040F600027F
:10117000C023DB055A6140F27813C2F200031B68FA
:10118000002B00D082E040F27813C2F2000301226B
:101190001A600121012041F24303C0F20003984785
:1011A00074E040F20042C023DB055A6140F26C1348
:1011B000C2F200031B68002B70D140F26C13C2F224
:1011C000000301221A600121022041F24303C0F210
:1011D0000003984762E08022C023DB055A6140F299
:1011E0008013C2F200031B68002B5FD140F2801312
:1011F000C2F200037F3A1A600121032041F2430347
:10120000C0F20003984751E02022C023DB055A6159
:1012100040F27013C2F200031B68002B4ED140F263
:101220007013C2F200031F3A1A600121042041F238
:101230004303C0F20003984740E00422C023DB05CB
:101240005A6140F28813C2F200031B68F3BB40F2FC
:101250008813C2F20003033A1A600121052041F20B
:101260004303C0F20003984730E03B78002B4FD196
:10127000B0472378012BF8D12570019841F2E5534E
:10128000C0F200039847030600D56FE7012041F242
:10129000E553C0F200039847030682D4022041F2CE
:1012A000E553C0F200039847030694D4032041F2AB
:1012B000E553C0F2000398470306A5D4042041F289
:1012C000E553C0F2000398470306B6D4052041F267
:1012D000E553C0F2000398470306C6D580221205E5
:1012E000C023DB055A6140F28C13C2F200031B6875
:1012F000002BBAD140F28C13C2F2000301221A6013
:101300000121062041F24303C0F200039847ACE7F5
:101310003D7041F23336C0F2000640F2DF04C2F203
:101320000004A5E740F2DC03C2F2000301221A70B8
:10133000704710B540F2DC03C2F200035B78012B6A
:1013400014D040F2DC03C2F200031B78012B23D03F
:1013500040F2DC03C2F200035B78012B05D00420CD
:1013600040F23543C0F20003984710BD41F22531E9
:10137000C0F2000140F22000C2F2000042F2093344
:10138000C0F2000398470028DBD140F2DC03C2F230
:10139000000300225A70D4E740F2DC03C2F20003DB
:1013A00000221A7041F69163C0F20003984788B991
:1013B00040F22000C2F200000C3041F2B963C0F2EA
:1013C0000003984760B140F2DC03C2F2000302223E
:1013D0009A7005E040F2DC03C2F2000301229A7029
:1013E00040F22003C2F20003DB681B787F2B13D886
:1013F00040F2DC03C2F200030122DA7040F29013E3
:10140000C2F200031B78DB07A2D540F2DC03C2F274
:10141000000300229A809BE740F2DC03C2F2000343
:1014200001225A7094E710B540F2DC04C2F20004C5
:1014300001236370E08841F28D63C0F20003984796
:10144000A288E1884FF6FF735B1A9A4207D340F2F5
:10145000DC03C2F20003012252429A8010BD5218EE
:10146000A280FBE710B541F22743C0F20003984782
:1014700010BD70B540F2DC03C2F200031B7A03BB5F
:1014800040F2DC04C2F200040A23636141F26543C6
:10149000C0F20003A3610126267721000C3140F23F
:1014A0000C15C2F20005280040F26363C0F200038D
:1014B00098472672280040F2A553C0F200039847CF
:1014C00070BD40F2DC01C2F200010C3140F20C10A0
:1014D000C2F2000040F22973C0F200039847CFE740
:1014E000F8B540F20C10C2F2000040F2E953C0F22D
:1014F0000003984742F20042C4F20002022113693D
:101500001942FCD142F20043C4F2000340F200123F
:101510001A815A6808218A435A6040F20C10C2F2BC
:101520000000023140F22D63C0F20003984742F2FE
:101530000042C4F20002202113691942FCD142F298
:101540000043C4F2000340F200125A8140F2DC036F
:10155000C2F20003F63ADA8041F27343C0F20003AC
:10156000984740F22000C2F2000042F2E113C0F2BC
:101570000003984740F2BC10C2F2000042F2F5238B
:10158000C0F200039847002440F22005C2F2000593
:1015900042F20547C0F2000742F22346C0F20006BD
:1015A00021002800B84721002800B0470134A4B228
:1015B000062CF5D140F29815C2F20005002440F245
:1015C0002006C2F200060C3641F29D67C0F2000709
:1015D000E1B22A003000B8470134A4B20635062C27
:1015E000F6D1F8BD40F22003C2F200035A6943006D
:1015F00018188000105C704710B542F21153C0F209
:101600000003984742F27143C0F20003984710BDAF
:10161000F7B50C25C3684D439C46032382684B43B2
:1016200055196C6863442D8964889F781B78641B06
:10163000E41AA3B201930025436860461E88B542B0
:1016400001D10020FEBD8D4218D08378BB4215D158
:1016500013787B33DBB2012B15D913899C46536871
:101660005B889C450AD264461B1B04789BB2A3424C
:1016700004D91B1B019C9BB29C4204D30135ADB223
:1016800003300C32DBE70120DCE70000024B1A8854
:10169000801818807047C046FC0000200B2340B122
:1016A0003AB101334B438168C91801230B70002301
:1016B0004A60180070470000F0B589B00190019BA6
:1016C0000B20002B00D1D7E1002701265B6805978E
:1016D00003931B88049706930297059B069A9342EF
:1016E0001ED1019B1B681A7851B200290BDA002128
:1016F000012640F2080C059C88B2844200D9F8E02B
:101700007F210A401A70029A002A00D002E1049850
:1017100001221978002800D154E10A431A7053E1DC
:10172000019BBD009B685D192B78042B00D178E0EC
:101730000AD8022B32D048D8012B24D0059B03377E
:1017400001339BB20593C8E7852B00D188E0862B37
:1017500000D1A8E0072BF1D16A6829895388994202
:1017600064D9C91A019B0398DB684079DB5D89B2B3
:101770000341DBB28B4259D86B78002B6ED1033317
:101780002E701370DAE76B6802961A781E231A42DD
:10179000D4D11C3B2B7006336B70CFE76A788AB1CB
:1017A0006968042A05D94B882B81013A6A70029630
:1017B000C4E72B8949888B42F7D001D9013BF3E775
:1017C0000133F1E703232B70B8E76B682A895B8844
:1017D0009A42B3D00199C96810D9D31ACA5D039946
:1017E0009BB249790A41D2B29A42A7D8039B1B798E
:1017F000002BA3D007222A706B70D8E7C9199B1A57
:101800000A789BB29A4299D88B782BB105990198A6
:10181000A84B9847002891D104232B70039B9B78F9
:10182000EAE76B682A895B889A4203D903232B7005
:101830000023B1E701999B1AC9689BB2C9190A78BC
:101840009A42F3D28B7833B105990198994B984716
:10185000002800D072E76B78002B40D0013BCBE72B
:10186000039B019A1B7A126813716B6828895B8845
:10187000984206D986232B70039B9B786B70049645
:1018800095E7019A1B1AD2689BB2D1190A78497858
:10189000140001310C41121BD2B204969A4200D2BC
:1018A0004CE78623B9E76B6828895B88984208D99A
:1018B0006B7813B903332B7001E0013B6B70049616
:1018C0003CE7019A1B1AD2689BB2D1190A78497871
:1018D000140001310C41121BD2B29A4204D285236A
:1018E0002B70039BDB78E9E76B78002BE2D0013BA0
:1018F000C4E70C2501984D43806845196F68387816
:10190000304205D164462D78A5430DB1304338707F
:101910000131F0E6039A567A002E00D1F7E68022D4
:10192000197852420A431A70012E00D0EFE60021C6
:1019300040F20C0C8AB20792059A88B2824200D813
:10194000E5E66046019A484392680825101802921D
:1019500002781400AC4394B1852A01D0032A2CD11B
:10196000019AD76803224A43BA189278039232B197
:1019700000220692059C944208D8069AEAB90125ED
:1019800040680278AA4302700131D3E7079C944271
:1019900010D065465543029C2D5D042D01D0862D47
:1019A00008D1032555437D19AD78039CA54201D18B
:1019B000059A0696013292B2DCE70122406805786A
:1019C0002A43E0E7914319705B883B4A190012886B
:1019D000C8318A424DD940F20C0CD21A93B202930C
:1019E000029BC82B47D9029BC83B9BB20293019B29
:1019F0001B685A88C8325A801A79002A00D070E0D1
:101A00005A790AB1013A5A719A790AB1013A9A712E
:101A1000019A5068867936B15A7922B9078891B20D
:101A20008F4233D85E71C57935B19A7922B906886B
:101A300091B2B14242D39D71019B5B68DA78002A72
:101A4000CED01F886346002103207B4304938BB2D2
:101A5000BB42C5D26246019B4A439B689A181578DF
:101A6000852D04D15578002D3ED0013D55700131B2
:101A7000EDE79A4202D3002009B0F0BD4FF6FF71A6
:101A80005118C91A013AC829A5D8F4E76146019C42
:101A90005143A46861180D78032D01D0082D06D19B
:101AA0004C680D896488AC4201D901350D81013241
:101AB000B5E7C04611160000FC0000206146019801
:101AC0005143806841180878032801D0082806D1BE
:101AD0004C6808896788874201D201380881013241
:101AE000A6E7013A1A71A7E70124050014705268AD
:101AF0004D431070019AD2685519AD78002DB6D0BB
:101B0000049C02321C1903920594059A9342AED0AC
:101B1000039A1678AE4206D101225E6834781442E8
:101B200001D01A703070039A0C3303320392ECE741
:101B3000034AD36ADB04DB0C002BFAD17047C046A2
:101B400000240042F0B506241D4B44431A680020CF
:101B500093681C1963888B4228D028D2C91A89B28D
:101B600049080120842921D800200A291ED9CF251F
:101B70000F261527A3881C009804800F68431D12A8
:101B800035407D431B11334040195B00C018344081
:101B900080B274B913680B4ADB789B069B0F5B001D
:101BA0009B5A594389B2884280414042F0BD591A3C
:101BB000D5E7013080B2052CECD9053CE4B2E8E76A
:101BC00010020020182600000D4970B50868012594
:101BD00001680C4A0C88062113885943A3420AD293
:101BE0008668765C06312E4202D101339BB2F5E75E
:101BF0000020138070BD002301201380FAE7C04647
:101C00001002002000010020F8B5174DA847174B1F
:101C100000271B68164E1B6808249A78402A02D0B9
:101C20000A24802A18D1F77330221B799443114A71
:101C30000F2B14D810490C400F210B401B021440ED
:101C40001C4346F240031C43A847D0233380A847D7
:101C50007460A8470020F8BD0222F273E4E741F265
:101C600000031C431440ECE7311B0000100200206D
:101C700000240042FFF0FFFFFFEFFFFFF0B57A4DB9
:101C800087B00490A8470222784C794E238893436A
:101C90002380A8470C230021012040F20F0C049A56
:101CA0005A43336802925B689B185B680393236A0C
:101CB000039A1B0D1203120B1B05134323626D4B7A
:101CC00001950833059303008B40039A1A4214D000
:101CD000059B694DCA5C53085B19024200D1B4E010
:101CE00065461F782F4010253D431D70634BD21869
:101CF0000023137013780343137001311429E2D1C8
:101D0000019B9847002140F2010C3568029A6B68EC
:101D10009B580393E369039A1B0D1203120B1B05D7
:101D20001343E361534B0833059363468B40039A97
:101D30001A4216D06046059BCA5C5308024200D185
:101D400088E04D481B180F201F780740413038436A
:101D500018704A4B6046D21800231370137803435F
:101D6000137001311429E0D10622049B5A43AB6859
:101D70009B181A789D88920701D505221A701F7842
:101D8000019BFF067F0F984700232FB93368029A03
:101D90005B689B189B7A1B09364A39499B180F22AE
:101DA0001B7F0D401A40120415439B06354A9B0FBA
:101DB0001B0515401D433368029A5B689B181B7A0C
:101DC000FA2B4ED804332D021B062D0A07271D437C
:101DD000019B98473368029A5B682B499B185B7A92
:101DE00062681B093B400A401B0513436360019B6B
:101DF0009847032033685968029BC9184A7A238898
:101E0000024022481202034013432380CB7A1F4032
:101E1000019B9847A560019BBFB29847A781019B92
:101E200098473022A37B9343A373019B98470223D7
:101E3000228813432380019B98470123227C13436C
:101E40002374019B984707B0F0BD67461D78BD43DA
:101E500005434AE708481B180F201F7887430A38B4
:101E600075E7FF231B06B1E7311B00000024004289
:101E700010020020182600003030004040300040A2
:101E8000FFFFF0FFFFFFCFFFFFFF8FFFFFFCFFFF14
:101E9000F0B5AC4B89B09A78079303230293A2B1B3
:101EA000A94B1B6803931B6804931B880593A74BDE
:101EB0001B6806930023019302936B469A88059B47
:101EC0009A4205D30223079A9370029809B0F0BD95
:101ED0000625019B06995B00CC5A039B01999B68E0
:101EE0000093019B5D43009B5D1907232E78B60884
:101EF0001E4005334B4303994968CB180093DB7AA6
:101F0000042E00D962E1300000F008FB0500130048
:101F100044012601DD000F21009A927A0A40934283
:101F200001D99E1AF6B234416C80019B01330193B2
:101F3000C3E71C4140F2FF13A4B26C80AF889C42FF
:101F400017D93200824BE418A3B204995B08897850
:101F5000402912D09AB143F6FF720026974210D161
:101F600081232B70733B02932B785A061AD50123D9
:101F700025E01B1B9BB20022E7E7002AEBD0002FD5
:101F8000EED0092BF0D940F2030C62460F2439132E
:101F9000381111403A12224020402740002E5DD0D7
:101FA0000A2461E05BB2002B0ADB0322049BDB788E
:101FB0001340934208D1FF23009A1372EE3B2B701B
:101FC000BF04BF0CAF80B0E7022B07D10F22009BEC
:101FD0005B7A9343009A53720923F0E7012BC6D131
:101FE0000F22009B5B7A1A4050231343009A5372CE
:101FF0000D23E4E70131CF3BC9B29BB2CF2B01D90E
:102000000329F7D1152B0DD90F2A06D12200032958
:102010000AD00131C9B2320006E00132153BD2B21A
:102020009BB2EFE70F2AF1D0022B11D90F280AD16A
:102030000F2A00D1CBE00132D2B2300003290BD0FD
:10204000022BDBD831E00130023BC0B29BB2EBE7A0
:102050000F28EDD0032928D16146F1E70526CDE709
:102060000139CF3BC9B29BB2CF2B01D90029F7D19F
:10207000152B0BD92AB9002251B10139C9B222005E
:1020800006E0013A153BD2B29BB2F1E7002AF2D04A
:10209000022B08D910B982B9100006E00138023BC2
:1020A000C0B29BB2F4E70028F5D0090389B212024E
:1020B0000A4317430001074384E7013AD2B22000E4
:1020C000022BD1D8F1E71C41009BA4B21F7A002358
:1020D000FF2F14D1009A7F336C8013722B78012B61
:1020E00000D022E7FF33FF339C426DD9184BE41830
:1020F000A4B20A2C00D818E745232B7015E7390045
:102100000120D9400026014201D11E0008230133DD
:10211000DBB2072BF3D9210010000E4B984720B1FA
:102120000123B3401F43009B1F72012346B1013EB0
:10213000F6B2B340009A127A9A43009B1A72CDE726
:102140002B70CBE7000100201002002014020020B9
:1021500001FEFFFF451B00001C41009BA4B25F7AFB
:102160003E09052E14D0210010001C4B984750B991
:10217000013601232B700F2336011F40009B3E4385
:102180005E726C80AAE7002EF3D0013EF6B2F2E751
:102190000426F0E70F261C41009BA4B25F7A3E4064
:1021A00086B1210010000D4B984730B9013EF6B2C0
:1021B00001232B700F239F43E0E7032EF8D0013655
:1021C000F6B2F7E70126F5E71C1B91E7FEE70329C6
:1021D00001D0200034E717005EE7C046451B000031
:1021E000F7B540F2004443F200050100384B39488E
:1021F0001A69394E024022431A611A6932402A4351
:102200001A615A69104004435C615A690B201640F8
:1022100035435D61002941D00B680C261C880023E2
:102220001D009AB294423AD80220BDB32B4B2C4EDB
:102230009B782C4C002B3CD10127B04723883B4393
:102240002380B047A3692A031B0D120B1B05134300
:10225000A361224B9F70002101240F27224E0836D4
:1022600001962B00CB40234214D0019B1F48CA5C2F
:1022700053081B181878224226D038408446102074
:102280006646304318701A4BD31800221A701A7819
:1022900022431A7001311429E3D10020FEBD32001F
:1022A0005A43486801338218106852680243154344
:1022B000B7E7B047A269A3692A4312031B0D120BAB
:1022C0001B051343A361C6E7B8432043DAE7C046C2
:1022D00000340040FFF8FFFFFF8FFFFF00010020E8
:1022E000311B00000024004218260000303000405E
:1022F000403000400B2310B1024B1860002318003F
:102300007047C04614020020F7B5060001910B2467
:10231000002959D0002857D02D4D083CAB78002B10
:1023200052D0023C042B4FD02A4F3B7CDB07DB0F03
:102330000093002B48D1022403685B79013BA34240
:1023400042D8254B98473B88A3433B80234B244FDF
:102350001E60019B6B60234B984740F20042224B6A
:10236000DA67BFF34F8FBFF36F8F1B4B9847032282
:102370001E4B1A70184B984701221D49FF200B78FD
:10238000000413430B701B4B1A7040F2841340F28D
:102390000042FA503368D83A5B79B9589B0503403C
:1023A000154801400B43BB5040F200437B606B4635
:1023B0001B882B80114B9847060038B904232888C6
:1023C000AB700F4B984734002000FEBDAC70FBE7AC
:1023D0000001002000240042311B000010020020F8
:1023E00000E100E0091C000008E100E02A240042AE
:1023F00029240042B2000020FFFF00FFC91B00009B
:102400007D1C00000B2350B103681A8802238A4206
:1024100005D9043359438268053B8B5400231800C7
:102420007047030010B50B20B3B11A68093814883F
:102430008C4211D992789B68402A0ED140F2342008
:102440003A3A4A439A1890800020062251435B187A
:102450001978043A0A431A7010BD803AD2B2012AA0
:10246000F3D806224A4340F267509A18EBE700007F
:10247000032170B51E4A1F4B11701A8801398A4317
:102480001D4C1A801D499B8F228809689BB2500001
:1024900043521B4925000978012902D002290ED098
:1024A00070BD0132174B2280984728B9164B2088FF
:1024B00098470423A370F3E763689847F0E70C2478
:1024C0000F20124954430E6871680C19A17A084014
:1024D000E17A0024884201D2091ACCB20621E340F5
:1024E0004A43B068821853800223AB70AB68E4E7BC
:1024F0002A2400420024004200010020140200208F
:10250000B2000020C91B00007D1C0000100200204A
:102510000322014B1A7070472A24004203B471460B
:10252000490840004900095A49008E4403BC7047DD
:1025300070B500250E4B0F4CE41AA410A54209D12A
:10254000002500F07BF80C4C0C4BE41AA410A542BB
:1025500007D170BD064AAB009B181B689847013530
:10256000ECE7064AAB009B181B6898470135EEE77D
:1025700048260000482600004C260000482600009F
:102580002E2E2F68616C2F7372632F68616C5F74DD
:10259000696D65722E6300002E2E2F68616C2F7599
:1025A00074696C732F7372632F7574696C735F6CCD
:1025B0006973742E6300000000000000000000003A
:1025C000000000000000000000000001000000000A
:1025D00004C2000000000000000000000000000035
:1025E00000000000000000000000000000000000EB
:1025F00000000000000000000000000000000000DB
:102600002E2E2F68706C2F7274632F68706C5F723F
:1026100074632E6300000000070013003500900073
:1026200000010203050608090A0B0E0F1011121310
:1026300016171E1F3F1C0B0503010000F8B5C0460E
:10264000F8BC08BC9E46704721010000F8B5C046A2
:0C265000F8BC08BC9E467047F500000076
:10265C00D50A0000450B0000930B0000F10B0000A5
:10266C00A10A0000AF0A0000BD0A0000D10A000058
:10267C00AC00002064000020980100209001002094
:10268C0050000020C80100203C0000201401001460
:10269C0001001401001401001401001401000000D9
:1026AC0006000400050014051401000020000020A1
:1026BC0000000A030000000000800000000010046D
:1026CC0000000000004000000000100400000000AA
:1026DC0000100000000010040000000000200000AA
:1026EC0000001004000000000000020000001004B4
:1026FC000000000000000100000010040600803003
:04270C0000020100C6
:00000001FF
